:020000040800F2
:1000000000280020F90A0008090A00080F0A000861
:10001000150A00081B0A0008210A00080000000059
:10002000000000000000000000000000270A000897
:10003000330A0008000000003F0A00084B0A0008CD
:10004000410B0008410B0008410B0008410B000860
:10005000410B0008410B0008410B0008410B000850
:10006000410B0008410B0008410B0008410B000840
:10007000410B0008410B0008410B0008410B000830
:10008000410B0008410B0008410B0008410B000820
:10009000410B0008410B0008410B0008410B000810
:1000A000410B0008410B0008410B0008410B000800
:1000B000590A0008410B000800000000410B00082D
:1000C000410B00080000000000000000410B000888
:1000D00000000000410B00086D0A0008000000004D
:1000E000410B0008410B0008410B00080000000014
:1000F0000000000000000000000000000000000000
:0C01000000000000000000005FF808F1A3
:10010C0010B5054C237833B9044B13B10448AFF345
:10011C0000800123237010BD74000020000000003B
:10012C004C2D000808B5034B1BB103490348AFF332
:10013C00008008BD00000000780000204C2D000855
:10014C0080B586B000AFF860B9607A603B6018206B
:10015C0002F0E4FC03467B617B69BA681A607B6938
:10016C007A685A607B693A689A607B693A6ADA60A5
:10017C007B6900221A747B6900225A61FB689B68B8
:10018C00002B0DD1FB687A691A60FB687A695A609A
:10019C00FB689B685A1CFB689A603B6ADBB230E0D8
:1001AC007B6A002B0ED1FB681A687B695A61FB686D
:1001BC007A691A60FB689B685A1CFB689A603B6AF8
:1001CC00DBB21EE0BB6A002B0ED1FB685B687A6960
:1001DC005A61FB687A695A60FB689B685A1CFB6819
:1001EC009A603B6ADBB20CE07B6A7A695A617B6984
:1001FC00BA6A5A61FB689B685A1CFB689A603B6A36
:10020C00DBB218461837BD4680BD80B586B000AF4E
:10021C0078607B689B68002B01D11E232FE07B68E4
:10022C009B68012B16D17B681B68FB60FB68DB6845
:10023C00BB607B6800221A607B6800225A607B6876
:10024C009B685A1E7B689A60F86802F06FFCBB686A
:10025C00DBB214E07B681B687B617B69DB683B610C
:10026C007B681B685A697B681A607B689B685A1E9E
:10027C007B689A60786902F059FC3B69DBB21846DE
:10028C001837BD4680BD000080B500AF2021024864
:10029C0001F006F800BF80BD0008014080B500AF3A
:1002AC004021024800F0FCFF00BF80BD0008014067
:1002BC0080B500AF8021024800F0F2FF00BF80BD86
:1002CC000008014080B500AF4FF48071024800F087
:1002DC00E7FF00BF80BD00BF0008014080B500AF44
:1002EC004FF40071024800F0DBFF00BF80BD00BF7F
:1002FC000008014080B500AF4FF48061024800F067
:10030C00CFFF00BF80BD00BF0008014080B500AF2B
:10031C0000F012FC00F044F800F0F4F800F07CF867
:10032C0000F0C6F8174801F03FFC00F031F94FF42B
:10033C00FA720021144800F065F94FF47A720A2120
:10034C00124800F05FF940F2DC521421104800F022
:10035C0059F94FF4FA6223210E4800F053F940F694
:10036C00C41228210C4800F04DF900224FF47A7188
:10037C000A4800F047F94FF47A7000F05FFA00F089
:10038C001FFAFCE79000002095020008A902000863
:10039C00BD020008D1020008E902000801030008B0
:1003AC0080B590B000AF07F1180328220021184641
:1003BC0002F0C4FB3B1D00221A605A609A60DA609E
:1003CC001A610223BB610123BB621023FB62002371
:1003DC007B6307F11803184600F07CFF0346002BE3
:1003EC0001D000F0CFF80F237B600023BB6000230B
:1003FC00FB6000233B6100237B613B1D0021184601
:10040C0001F0EAF90346002B01D000F0BBF800BF65
:10041C004037BD4680BD000080B586B000AF07F107
:10042C00080300221A605A609A60DA603B46002288
:10043C001A605A601D4B4FF080421A601B4B41F6FC
:10044C003F725A60194B00229A60184B0A22DA60EC
:10045C00164B00221A61154B00229A61134801F0C9
:10046C0053FB0346002B01D000F08CF84FF4805363
:10047C00BB6007F1080319460C4801F0E9FC034680
:10048C00002B01D000F07EF800233B6000237B6042
:10049C003B461946054801F0B1FE0346002B01D03E
:1004AC0000F070F800BF1837BD4680BD90000020EA
:1004BC0080B500AF114B124A1A60104B4FF4165214
:1004CC005A600E4B00229A600C4B0022DA600B4BE8
:1004DC0000221A61094B0C225A61084B00229A61C6
:1004EC00064B0022DA61054801F0F2FE0346002BB0
:1004FC0001D000F047F800BF80BD00BFD80000203D
:10050C000044004080B586B000AF07F1080300221C
:10051C001A605A609A60DA60124B9B69114A43F078
:10052C00040393610F4B9B6903F004037B607B68AE
:10053C0000224FF4FC610C4800F09AFE4FF4FC636F
:10054C00BB600123FB6000233B6102237B6107F14D
:10055C0008031946044800F00FFD00BF1837BD46CC
:10056C0080BD00BF001002400008014080B582B081
:10057C0000AF786000F000F900F07AF900BF08379E
:10058C00BD4680BD80B400AF72B600BFFEE7000070
:10059C0080B582B000AF174B1B683B6004E03B6832
:1005AC00DB68184600F0C8F83B68002BF7D1002335
:1005BC007B6008E0104A7B684FF0FF3142F8231053
:1005CC007B6801337B607B681D2BF3DD0B4B0022BA
:1005DC001A600B4B00221A70064B00221A60054B56
:1005EC0000225A60034B00229A6000BF0837BD46B8
:1005FC0080BD00BF1C01002028010020A0010020AC
:10060C00A401002080B58EB004AFF860B9607A60A8
:10061C0000237B62434B1B683B620023FB6100237E
:10062C007B6110E0404B1B68591C404BA3FB012322
:10063C001A0913461B019B1A5B00CA1A3A4B1A6023
:10064C007B6A01337B62384B1B68394A52F8233082
:10065C00B3F1FF3F02D07B6A1D2BE3D97B6A1E2BC3
:10066C0001D11E2359E02F4B9B68002B13D1314B2A
:10067C001B681A46BB68B3FBF2F12B4B1B683A6A3A
:10068C000292FA69019200937B680A46F968254840
:10069C00FFF756FD36E00023BB6109E03B6A5B685F
:1006AC00BA691344BB613B6AFB613B6A5B693B62A1
:1006BC003B6A5A68BB691344BA689A4202D33B6AD4
:1006CC00002BEBD1BA68BB69D31A3B613B6A002B98
:1006DC0005D03B6A5A683B69D21A3B6A5A60154B83
:1006EC001B681A463B69B3FBF2F10F4B1B683A6A65
:1006FC000292FA69019200937B680A46F9680948EC
:10070C00FFF71EFD084B1A68074B1B681146084A79
:10071C0042F82310044B1B68DBB218462837BD4641
:10072C0080BD00BF1C010020A001002089888888A2
:10073C00280100200000002080B582B000AF786056
:10074C000B4A7B6852F82330B3F1FF3F01D11E23D3
:10075C000AE00848FFF759FD054A7B684FF0FF3166
:10076C0042F823107B68DBB218460837BD4680BDC3
:10077C00280100201C01002080B483B000AF0E4B78
:10078C001B687B607B68002B10D00C4B1B78002BFC
:10079C000CD17B685B68002B05D07B685B685A1EAC
:1007AC007B685A6002E0054B01221A7000BF0C37BF
:1007BC00BD4680BC704700BF1C010020A401002076
:1007CC0080B586B000AF1B4B1B687B617B695B6897
:1007DC00002B2BD17B69002B28D07B691B68984799
:1007EC007B699B68002B05D17B69DB681846FFF79A
:1007FC00A3FF1BE07B691B683B617B695B68FB604B
:10080C007B699B68BB607B69DB687B607B691B7C5D
:10081C00FB707B69DB681846FFF78EFFBA68B96816
:10082C003869FFF7EFFE044B00221A701837BD46EB
:10083C0080BD00BF1C010020A401002080B483B047
:10084C0000AF7860074B1B687A6892FBF3F3064A9B
:10085C001360064B00221A6000BF0C37BD4680BCEB
:10086C00704700BF00000020A8010020B00100204C
:10087C0080B400AF114B1B68002B0BDD0F4B1B68BA
:10088C00013B0E4A13600D4B1B68002B02DC0C4B1A
:10089C0001221A600B4B1B68002B0BDD094B1B68EC
:1008AC00013B084A1360074B1B68002B02DC064B0C
:1008BC0001221A6000BFBD4680BC7047A801002011
:1008CC00B0010020AC010020B401002080B483B042
:1008DC0000AF0E4B9B690D4A43F0010393610B4B28
:1008EC009B6903F001037B607B68084BDB69074A5B
:1008FC0043F08053D361054BDB6903F080533B60BD
:10090C003B6800BF0C37BD4680BC704700100240EE
:10091C0080B584B000AF78607B681B68B3F1804F02
:10092C0013D10C4BDB690B4A43F00103D361094B28
:10093C00DB6903F00103FB60FB68002200211C2033
:10094C0000F033FA1C2000F04CFA00BF1037BD4603
:10095C0080BD00BF0010024080B588B000AF786049
:10096C0007F1100300221A605A609A60DA607B6803
:10097C001B681F4A934237D11E4BDB691D4A43F457
:10098C000033D3611B4BDB6903F40033FB60FB6862
:10099C00184B9B69174A43F004039361154B9B69F1
:1009AC0003F00403BB60BB6804233B6102237B613F
:1009BC000323FB6107F1100319460F4800F0DCFA22
:1009CC0008233B6100237B610023BB6107F110030B
:1009DC001946094800F0D0FA00220021262000F028
:1009EC00E4F9262000F0FDF900BF2037BD4680BD9C
:1009FC0000440040001002400008014080B400AFE9
:100A0C00FEE780B400AFFEE780B400AFFEE780B431
:100A1C0000AFFEE780B400AFFEE780B400AF00BFCC
:100A2C00BD4680BC704780B400AF00BFBD4680BCE3
:100A3C00704780B400AF00BFBD4680BC704780B526
:100A4C0000AF00F0BFF800BF80BD000080B500AF64
:100A5C00024801F0F5F800BF80BD00BF90000020F7
:100A6C0080B500AF024801F081FC00BF80BD00BF23
:100A7C00D800002080B586B000AF7860144A154BC2
:100A8C00D31A7B617B693B61134B1B68002B02D132
:100A9C00114B124A1A60104B1A687B6813443A695E
:100AAC009A4207D202F010F803460C221A604FF05B
:100ABC00FF3309E0084B1B68FB60074B1A687B6827
:100ACC001344054A1360FB6818461837BD4680BDB1
:100ADC000028002000040000B8010020D0010020F4
:100AEC0080B400AF00BFBD4680BC70470C480D49B8
:100AFC000D4A002302E0D458C4500433C4188C426D
:100B0C00F9D30A4A0A4C002301E013600432A242D2
:100B1C00FBD3FFF7E5FF01F0DDFFFFF7F7FB7047B5
:100B2C000000002074000020942D000874000020A8
:100B3C00D0010020FEE7000080B500AF084B1B6819
:100B4C00074A43F010031360032000F023F90F2031
:100B5C0000F008F8FFF7BAFE0023184680BD00BF6E
:100B6C000020024080B582B000AF7860124B1A684A
:100B7C00124B1B7819464FF47A73B3FBF1F3B2FBAB
:100B8C00F3F3184600F03BF90346002B01D0012388
:100B9C000EE07B680F2B0AD8002279684FF0FF30EB
:100BAC0000F003F9064A7B681360002300E0012380
:100BBC0018460837BD4680BD040000200C000020FC
:100BCC000800002080B400AF054B1B781A46054B7B
:100BDC001B681344034A136000BFBD4680BC7047BA
:100BEC000C000020BC01002080B400AF024B1B683D
:100BFC001846BD4680BC7047BC01002080B485B04F
:100C0C0000AF78607B6803F00703FB600C4BDB687C
:100C1C00BB60BA684FF6FF031340BB60FB681A0257
:100C2C00BB68134343F0BF6343F40033BB60044A17
:100C3C00BB68D36000BF1437BD4680BC704700BF93
:100C4C0000ED00E080B400AF044BDB681B0A03F03E
:100C5C0007031846BD4680BC704700BF00ED00E09E
:100C6C0080B483B000AF0346FB7197F90730002BBB
:100C7C000BDBFB7903F01F02064997F907305B0980
:100C8C00012000FA02F241F8232000BF0C37BD46C8
:100C9C0080BC704700E100E080B483B000AF034635
:100CAC003960FB7197F90730002B0ADB3B68DAB22D
:100CBC000C4997F907301201D2B20B4483F8002388
:100CCC000AE03B68DAB20849FB7903F00F03043BF6
:100CDC001201D2B20B441A7600BF0C37BD4680BC51
:100CEC00704700BF00E100E000ED00E080B489B087
:100CFC0000AFF860B9607A60FB6803F00703FB6132
:100D0C00FB69C3F10703042B28BF0423BB61FB69F8
:100D1C000433062B02D9FB69033B00E000237B6103
:100D2C004FF0FF32BB6902FA03F3DA43BB681A4097
:100D3C007B699A404FF0FF317B6901FA03F3D94389
:100D4C007B680B40134318462437BD4680BC704764
:100D5C0080B582B000AF78607B68013BB3F1807FD7
:100D6C0001D301230FE00A4A7B68013B53600F213A
:100D7C004FF0FF30FFF790FF054B00229A60044BB9
:100D8C0007221A60002318460837BD4680BD00BFF5
:100D9C0010E000E080B582B000AF78607868FFF7B3
:100DAC002DFF00BF0837BD4680BD80B586B000AFB3
:100DBC000346B9607A60FB7300237B61FFF742FF47
:100DCC0078617A68B9687869FFF790FF024697F9FD
:100DDC000F3011461846FFF75FFF00BF1837BD46AE
:100DEC0080BD80B582B000AF0346FB7197F9073028
:100DFC001846FFF735FF00BF0837BD4680BD80B5EC
:100E0C0082B000AF78607868FFF7A2FF03461846FF
:100E1C000837BD4680BD80B485B000AF7860002334
:100E2C00FB737B6893F82130022B08D07B6804227B
:100E3C009A637B68002283F82020012320E07B68E2
:100E4C001B681A687B681B6822F00E021A607B68AC
:100E5C001B681A687B681B6822F001021A607B68A9
:100E6C001A6C7B68DB6B012101FA02F25A607B6819
:100E7C00012283F821207B68002283F82020FB7B51
:100E8C0018461437BD4680BC7047000080B584B04E
:100E9C0000AF78600023FB737B6893F82130022B42
:100EAC0005D07B6804229A630123FB7351E07B68B5
:100EBC001B681A687B681B6822F00E021A607B683C
:100ECC001B681A687B681B6822F001021A607B6839
:100EDC001B68224A934229D07B681B68204A9342A4
:100EEC0022D07B681B681F4A93421AD07B681B6810
:100EFC001D4A934212D07B681B681C4A93420AD04D
:100F0C007B681B681A4A934202D14FF480130EE09F
:100F1C004FF080730BE04FF4803308E04FF48053B4
:100F2C0005E04FF4807302E0102300E00123114A26
:100F3C0053607B68012283F821207B68002283F8B0
:100F4C0020207B685B6B002B03D07B685B6B786825
:100F5C009847FB7B18461037BD4680BD0800024001
:100F6C001C00024030000240440002405800024085
:100F7C006C0002400000024080B48BB000AF78607F
:100F8C00396000237B6200233B6261E101227B6AB2
:100F9C0002FA03F3FB613B681B68FA691340BB61FF
:100FAC00BA69FB699A4240F050813B685B68974A8A
:100FBC0093425ED0954A934275D8954A934258D045
:100FCC00934A93426FD8934A934252D0914A934298
:100FDC0069D8914A93424CD08F4A934263D88F4A36
:100FEC00934246D08D4A93425DD8122B2AD8122BAD
:100FFC0059D801A252F823F07F10000859100008AC
:10100C006B100008AD100008B3100008B3100008F6
:10101C00B3100008B3100008B3100008B310000898
:10102C00B3100008B3100008B3100008B310000888
:10103C00B3100008B3100008B310000861100008CA
:10104C0075100008764A934213D02CE03B68DB689D
:10105C003B6229E03B68DB6804333B6224E03B687D
:10106C00DB6808333B621FE03B68DB680C333B6298
:10107C001AE03B689B68002B02D104233B6213E00F
:10108C003B689B68012B05D108233B627B68FA699E
:10109C001A6109E008233B627B68FA695A6103E034
:1010AC0000233B6200E000BFBB69FF2B01D87B68CB
:1010BC0001E07B6804337B61BB69FF2B02D87B6A40
:1010CC009B0002E07B6A083B9B003B617B691A68D2
:1010DC000F213B6901FA03F3DB431A40396A3B6980
:1010EC0001FA03F31A437B691A603B685B6803F0EF
:1010FC008053002B00F0A9804A4B9B69494A43F06E
:10110C0001039361474B9B6903F00103BB60BB6810
:10111C00454A7B6A9B08023352F82330FB607B6A9A
:10112C0003F003039B000F2202FA03F3DB43FA687C
:10113C001340FB607B683D4A93420DD07B683C4A70
:10114C00934207D07B683B4A934201D1022304E0CF
:10115C00032302E0012300E000237A6A02F0030279
:10116C0092009340FA681343FB602F497B6A9B08FB
:10117C000233FA6841F823203B685B6803F4803340
:10118C00002B06D02C4B1A682B49BB6913430B6000
:10119C0006E0294B1A68BB69DB43274913400B60F7
:1011AC003B685B6803F40033002B06D0224B5A6873
:1011BC002149BB6913434B6006E01F4B5A68BB695E
:1011CC00DB431D4913404B603B685B6803F48013A1
:1011DC00002B06D0184B9A681749BB6913438B60D8
:1011EC0006E0154B9A68BB69DB43134913408B60CF
:1011FC003B685B6803F40013002B1FD00E4BDA68BE
:10120C000D49BB691343CB601FE000BF00003210D7
:10121C0000003110000022100000211000001210FC
:10122C0000001110001002400000014000080140B5
:10123C00000C014000100140000401400B4BDA6827
:10124C00BB69DB4309491340CB607B6A01337B628A
:10125C003B681A687B6A22FA03F3002B7FF496AE84
:10126C0000BF00BF2C37BD4680BC70470004014056
:10127C0080B483B000AF78600B467B8013467B70E4
:10128C007B78002B03D07A887B681A6103E07B881B
:10129C001A047B681A6100BF0C37BD4680BC7047CE
:1012AC0080B485B000AF78600B467B807B68DB68D0
:1012BC00FB607A88FB6813401A04FB68D9437B886F
:1012CC000B401A437B681A6100BF1437BD4680BCC3
:1012DC007047000080B586B000AF78607B68002B4B
:1012EC0001D1012372E27B681B6803F00103002B20
:1012FC0000F08780924B5B6803F00C03042B0CD03E
:10130C008F4B5B6803F00C03082B12D18C4B5B6882
:10131C0003F48033B3F5803F0BD1894B1B6803F486
:10132C000033002B6CD07B685B68002B68D10123E9
:10133C004CE27B685B68B3F5803F06D1804B1B6841
:10134C007F4A43F4803313602EE07B685B68002B8C
:10135C000CD17B4B1B687A4A23F480331360784B97
:10136C001B68774A23F4802313601DE07B685B685D
:10137C00B3F5A02F0CD1724B1B68714A43F4802338
:10138C0013606F4B1B686E4A43F4803313600BE0A1
:10139C006B4B1B686A4A23F480331360684B1B68E1
:1013AC00674A23F4802313607B685B68002B13D09F
:1013BC00FFF71AFC386108E0FFF716FC02463B69A0
:1013CC00D31A642B01D9032300E25D4B1B6803F491
:1013DC000033002BF0D014E0FFF706FC386108E076
:1013EC00FFF702FC02463B69D31A642B01D9032395
:1013FC00ECE1534B1B6803F40033002BF0D100E0FD
:10140C0000BF7B681B6803F00203002B63D04C4BBE
:10141C005B6803F00C03002B0BD0494B5B6803F0AB
:10142C000C03082B1CD1464B5B6803F48033002B58
:10143C0016D1434B1B6803F00203002B05D07B68CD
:10144C001B69012B01D00123C0E13D4B1B6823F02C
:10145C00F8027B685B69DB00394913430B603AE0A7
:10146C007B681B69002B20D0364B01221A60FFF7DA
:10147C00BBFB386108E0FFF7B7FB02463B69D31AA8
:10148C00022B01D90323A1E12D4B1B6803F00203AE
:10149C00002BF0D02A4B1B6823F0F8027B685B69A9
:1014AC00DB00274913430B6015E0264B00221A6022
:1014BC00FFF79AFB386108E0FFF796FB02463B69A1
:1014CC00D31A022B01D9032380E11D4B1B6803F0B7
:1014DC000203002BF0D17B681B6803F00803002B80
:1014EC003AD07B689B69002B19D0174B01221A60EC
:1014FC00FFF77AFB386108E0FFF776FB02463B69A1
:10150C00D31A022B01D9032360E10D4B5B6A03F064
:10151C000203002BF0D0012000F0D8FA1CE00A4B9B
:10152C0000221A60FFF760FB38610FE0FFF75CFBED
:10153C0002463B69D31A022B08D9032346E100BFAC
:10154C00001002400000424280044242924B5B6A0F
:10155C0003F00203002BE9D17B681B6803F0040342
:10156C00002B00F0A6800023FB758B4BDB6903F08E
:10157C008053002B0DD1884BDB69874A43F0805395
:10158C00D361854BDB6903F08053BB60BB680123DF
:10159C00FB75824B1B6803F48073002B18D17F4BB7
:1015AC001B687E4A43F480731360FFF71DFB3861A0
:1015BC0008E0FFF719FB02463B69D31A642B01D9EB
:1015CC00032303E1754B1B6803F48073002BF0D0ED
:1015DC007B68DB68012B06D16F4B1B6A6E4A43F0AC
:1015EC00010313622DE07B68DB68002B0CD16A4B86
:1015FC001B6A694A23F001031362674B1B6A664A34
:10160C0023F0040313621CE07B68DB68052B0CD110
:10161C00614B1B6A604A43F0040313625E4B1B6A06
:10162C005D4A43F0010313620BE05B4B1B6A5A4AA1
:10163C0023F001031362584B1B6A574A23F004032F
:10164C0013627B68DB68002B15D0FFF7CDFA38618D
:10165C000AE0FFF7C9FA02463B69D31A41F2883215
:10166C00934201D90323B1E04B4B1B6A03F00203F5
:10167C00002BEED014E0FFF7B7FA38610AE0FFF761
:10168C00B3FA02463B69D31A41F28832934201D92C
:10169C0003239BE0404B1B6A03F00203002BEED1AB
:1016AC00FB7D012B05D13C4BDB693B4A23F080537E
:1016BC00D3617B68DB69002B00F08780364B5B685D
:1016CC0003F00C03082B61D07B68DB69022B46D13D
:1016DC00334B00221A60FFF787FA386108E0FFF7F6
:1016EC0083FA02463B69D31A022B01D903236DE01E
:1016FC00294B1B6803F00073002BF0D17B681B6A2D
:10170C00B3F5803F08D1244B5B6823F400327B682F
:10171C009B68214913434B601F4B5B6823F4741285
:10172C007B68196A7B685B6A0B431B4913434B60EC
:10173C001B4B01221A60FFF757FA386108E0FFF7DC
:10174C0053FA02463B69D31A022B01D903233DE01D
:10175C00114B1B6803F00073002BF0D035E0104BDD
:10176C0000221A60FFF740FA386108E0FFF73CFAF4
:10177C0002463B69D31A022B01D9032326E0064B00
:10178C001B6803F00073002BF0D11EE07B68DB6953
:10179C00012B07D1012319E000100240007000401A
:1017AC00600042420B4B5B68FB60FB6803F48032C9
:1017BC007B681B6A9A4206D1FB6803F470127B6843
:1017CC005B6A9A4201D0012300E0002318461837C7
:1017DC00BD4680BD0010024080B584B000AF78607B
:1017EC0039607B68002B01D10123D0E06A4B1B6868
:1017FC0003F007033A689A4210D9674B1B6823F031
:10180C00070265493B6813430B60634B1B6803F08D
:10181C0007033A689A4201D00123B8E07B681B6841
:10182C0003F00203002B20D07B681B6803F0040339
:10183C00002B05D0594B5B68584A43F4E063536066
:10184C007B681B6803F00803002B05D0534B5B68C7
:10185C00524A43F460535360504B5B6823F0F002E0
:10186C007B689B684D4913434B607B681B6803F096
:10187C000103002B40D07B685B68012B07D1474BE1
:10188C001B6803F40033002B15D101237FE07B6828
:10189C005B68022B07D1414B1B6803F00073002BD4
:1018AC0009D1012373E03D4B1B6803F00203002BAD
:1018BC0001D101236BE0394B5B6823F003027B6899
:1018CC005B68364913434B60FFF78EF9F8600AE00A
:1018DC00FFF78AF90246FB68D31A41F28832934229
:1018EC0001D9032353E02D4B5B6803F00C027B689A
:1018FC005B689B009A42EBD1274B1B6803F00703F4
:10190C003A689A4210D2244B1B6823F007022249F2
:10191C003B6813430B60204B1B6803F007033A68CA
:10192C009A4201D0012332E07B681B6803F0040368
:10193C00002B08D0194B5B6823F4E0627B68DB68F2
:10194C00164913434B607B681B6803F00803002B9C
:10195C0009D0124B5B6823F460527B681B69DB0077
:10196C000E4913434B6000F021F802460B4B5B68A9
:10197C001B0903F00F030A49CB5C22FA03F3094A53
:10198C001360094B1B681846FFF7ECF80023184648
:10199C001037BD4680BD00BF002002400010024041
:1019AC00742D0008040000200800002090B48AB0B8
:1019BC0000AF294B3C1D0FCB84E80F0040F20123F4
:1019CC003B800023FB610023BB6100237B6200236F
:1019DC007B6100233B62214B5B68FB61FB6903F07D
:1019EC000C03042B02D0082B03D02BE01C4B3B62C6
:1019FC002BE0FB699B0C03F00F0328333B4413F8DB
:101A0C00243C7B61FB6903F48033002B12D0134B15
:101A1C005B685B0C03F0010328333B4413F8283C50
:101A2C00BB617B690E4A03FB02F2BB69B2FBF3F3A9
:101A3C007B6204E07B690B4A02FB03F37B627B6AEB
:101A4C003B6202E0064B3B6200BF3B6A18462837FC
:101A5C00BD4690BC704700BF642D000800100240CA
:101A6C0000127A0000093D0080B400AF024B1B68E5
:101A7C001846BD4680BC70470400002080B500AFFE
:101A8C00FFF7F2FF0246054B5B681B0A03F00703E6
:101A9C000349CB5C22FA03F3184680BD00100240C8
:101AAC00842D000880B500AFFFF7DEFF0246054B22
:101ABC005B68DB0A03F007030349CB5C22FA03F3F0
:101ACC00184680BD00100240842D000880B485B0FB
:101ADC0000AF78600A4B1B680A4AA2FB03235B0A1F
:101AEC007A6802FB03F3FB6000BFFB685A1EFA60C6
:101AFC00002BF9D100BF00BF1437BD4680BC704726
:101B0C0004000020D34D621080B582B000AF786025
:101B1C007B68002B01D1012341E07B6893F83D30B9
:101B2C00DBB2002B06D17B68002283F83C2078685E
:101B3C00FEF7EEFE7B68022283F83D207B681A6874
:101B4C007B6804331946104600F06AFA7B68012260
:101B5C0083F846207B68012283F83E207B680122B3
:101B6C0083F83F207B68012283F840207B680122A8
:101B7C0083F841207B68012283F842207B68012294
:101B8C0083F843207B68012283F844207B68012280
:101B9C0083F845207B68012283F83D2000231846FA
:101BAC000837BD4680BD000080B485B000AF7860BA
:101BBC007B6893F83D30DBB2012B01D0012335E07B
:101BCC007B68022283F83D207B681B68DA687B689F
:101BDC001B6842F00102DA607B681B68164A93426C
:101BEC0009D07B681B68B3F1804F04D07B681B68FD
:101BFC00124A934211D17B681B689B6803F0070360
:101C0C00FB60FB68062B10D07B681B681A687B682E
:101C1C001B6842F001021A6007E07B681B681A68B7
:101C2C007B681B6842F001021A60002318461437C7
:101C3C00BD4680BC704700BF002C01400004004032
:101C4C0080B582B000AF78607B681B681B6903F0BD
:101C5C000203022B22D17B681B68DB6803F00203B2
:101C6C00022B1BD17B681B686FF002021A617B6828
:101C7C0001221A777B681B689B6903F00303002B16
:101C8C0003D0786800F0B1F905E0786800F0A4F9A9
:101C9C00786800F0B3F97B6800221A777B681B68C0
:101CAC001B6903F00403042B22D17B681B68DB68DF
:101CBC0003F00403042B1BD17B681B686FF0040238
:101CCC001A617B6802221A777B681B689B6903F494
:101CDC004073002B03D0786800F087F905E0786832
:101CEC0000F07AF9786800F089F97B6800221A779D
:101CFC007B681B681B6903F00803082B22D17B68E7
:101D0C001B68DB6803F00803082B1BD17B681B687E
:101D1C006FF008021A617B6804221A777B681B68D3
:101D2C00DB6903F00303002B03D0786800F05DF946
:101D3C0005E0786800F050F9786800F05FF97B688E
:101D4C0000221A777B681B681B6903F01003102BA9
:101D5C0022D17B681B68DB6803F01003102B1BD1AE
:101D6C007B681B686FF010021A617B6808221A7777
:101D7C007B681B68DB6903F44073002B03D0786825
:101D8C0000F033F905E0786800F026F9786800F087
:101D9C0035F97B6800221A777B681B681B6903F096
:101DAC000103012B0ED17B681B68DB6803F0010378
:101DBC00012B07D17B681B686FF001021A617868F0
:101DCC00FEF7D4FB7B681B681B6903F08003802B38
:101DDC000ED17B681B68DB6803F08003802B07D176
:101DEC007B681B686FF080021A61786800F067FAF4
:101DFC007B681B681B6903F04003402B0ED17B688A
:101E0C001B68DB6803F04003402B07D17B681B6821
:101E1C006FF040021A61786800F0F9F87B681B6873
:101E2C001B6903F02003202B0ED17B681B68DB6839
:101E3C0003F02003202B07D17B681B686FF0200276
:101E4C001A61786800F032FA00BF0837BD4680BDD1
:101E5C0080B584B000AF786039607B6893F83C3013
:101E6C00012B01D10223B3E07B68012283F83C20D3
:101E7C007B68022283F83D207B681B689B68FB60B3
:101E8C00FB6823F07703FB60FB6823F47F43FB6064
:101E9C007B681B68FA689A603B681B68B3F5005F47
:101EAC003ED0B3F5005F00F28780B3F5805F00F0A1
:101EBC008580B3F5805F7FD8702B1AD0702B7BD8C0
:101ECC00602B50D0602B77D8502B3CD0502B73D834
:101EDC00402B58D0402B6FD8302B64D0302B6BD884
:101EEC00202B60D0202B67D8002B5CD0102B5AD025
:101EFC0062E07B6818683B6899683B685A683B6885
:101F0C00DB6800F05CF97B681B689B68FB60FB6816
:101F1C0043F07703FB607B681B68FA689A604EE0BD
:101F2C007B6818683B6899683B685A683B68DB6853
:101F3C0000F045F97B681B689A687B681B6842F463
:101F4C0080429A603BE07B6818683B6859683B6844
:101F5C00DB681A4600F0BCF87B681B6850211846F9
:101F6C0000F013F92BE07B6818683B6859683B68F4
:101F7C00DB681A4600F0DAF87B681B6860211846AB
:101F8C0000F003F91BE07B6818683B6859683B68F4
:101F9C00DB681A4600F09CF87B681B6840211846E9
:101FAC0000F0F3F80BE07B681A683B681B68194675
:101FBC00104600F0EAF802E000BF00E000BF7B68CA
:101FCC00012283F83D207B68002283F83C2000230B
:101FDC0018461037BD4680BD80B483B000AF786022
:101FEC0000BF0C37BD4680BC704780B483B000AFD7
:101FFC00786000BF0C37BD4680BC704780B483B09E
:10200C0000AF786000BF0C37BD4680BC704780B411
:10201C0083B000AF786000BF0C37BD4680BC704702
:10202C0080B485B000AF786039607B681B68FB605A
:10203C007B68254A934207D07B68B3F1804F03D06D
:10204C007B68224A934208D1FB6823F07003FB6043
:10205C003B685B68FA681343FB607B681A4A9342DF
:10206C0007D07B68B3F1804F03D07B68174A93424B
:10207C0008D1FB6823F44073FB603B68DB68FA68AB
:10208C001343FB60FB6823F080023B685B691343DE
:10209C00FB607B68FA681A603B689A687B68DA6256
:1020AC003B681A687B689A627B68074A934203D143
:1020BC003B681A697B681A637B6801225A6100BF0E
:1020CC001437BD4680BC7047002C01400004004012
:1020DC0080B487B000AFF860B9607A60FB681B6AA7
:1020EC007B61FB681B6A23F00102FB681A62FB68C8
:1020FC009B693B613B6923F0F0033B617B681B01EF
:10210C003A6913433B617B6923F00A037B617A696B
:10211C00BB6813437B61FB683A699A61FB687A6917
:10212C001A6200BF1C37BD4680BC704780B487B0B4
:10213C0000AFF860B9607A60FB681B6A23F010028C
:10214C00FB681A62FB689B697B61FB681B6A3B61DD
:10215C007B6923F470437B617B681B037A691343AF
:10216C007B613B6923F0A0033B61BB681B013A69AF
:10217C0013433B61FB687A699A61FB683A691A629E
:10218C0000BF1C37BD4680BC704780B485B000AF23
:10219C00786039607B689B68FB60FB6823F0700398
:1021AC00FB603A68FB68134343F00703FB607B68F2
:1021BC00FA689A6000BF1437BD4680BC704780B483
:1021CC0087B000AFF860B9607A603B60FB689B68D1
:1021DC007B617B6923F47F437B613B681A027B68DC
:1021EC001A43BB6813437A6913437B61FB687A69B2
:1021FC009A6000BF1C37BD4680BC704780B485B068
:10220C0000AF786039607B6893F83C30012B01D1CA
:10221C00022341E07B68012283F83C207B68022288
:10222C0083F83D207B681B685B68FB607B681B68E0
:10223C009B68BB60FB6823F07003FB603B681B680A
:10224C00FA681343FB607B681B68FA685A607B680A
:10225C001B68144A934209D07B681B68B3F1804F0A
:10226C0004D07B681B68104A93420CD1BB6823F0E6
:10227C008003BB603B685B68BA681343BB607B68D8
:10228C001B68BA689A607B68012283F83D207B68E2
:10229C00002283F83C20002318461437BD4680BC2E
:1022AC00704700BF002C01400004004080B483B094
:1022BC0000AF786000BF0C37BD4680BC704780B45F
:1022CC0083B000AF786000BF0C37BD4680BC704750
:1022DC0080B582B000AF78607B68002B01D1012300
:1022EC003FE07B6893F83D30DBB2002B06D17B6876
:1022FC00002283F83C207868FEF72EFB7B682422B2
:10230C0083F83D207B681B68DA687B681B6822F4C5
:10231C000052DA60786800F049FB7B681B681A6928
:10232C007B681B6822F490421A617B681B685A69AF
:10233C007B681B6822F02A025A617B681B68DA688A
:10234C007B681B6842F40052DA607B6800221A64D6
:10235C007B68202283F83D207B68202283F83E2076
:10236C00002318460837BD4680BD000080B58AB0F2
:10237C0000AF78607B681B681B687B627B681B689E
:10238C00DB683B627B681B685B69FB610023BB619C
:10239C0000237B617B6A03F00F03BB61BB69002BDD
:1023AC000DD17B6A03F02003002B08D03B6A03F0AD
:1023BC002003002B03D0786800F04FFA7BE1BB6957
:1023CC00002B00F0B180FB6903F00103002B05D159
:1023DC003B6A03F49073002B00F0A6807B6A03F039
:1023EC000103002B0AD03B6A03F48073002B05D049
:1023FC007B681B6C43F001027B681A647B6A03F0F8
:10240C000403002B0AD0FB6903F00103002B05D059
:10241C007B681B6C43F002027B681A647B6A03F0D6
:10242C000203002B0AD0FB6903F00103002B05D03B
:10243C007B681B6C43F004027B681A647B6A03F0B4
:10244C000803002B0FD03B6A03F02003002B04D1B0
:10245C00FB6903F00103002B05D07B681B6C43F078
:10246C0008027B681A647B681B6C002B00F01E81D1
:10247C007B6A03F02003002B07D03B6A03F0200398
:10248C00002B02D0786800F0E8F97B681B685B6968
:10249C0003F04003002B14BF01230023DBB27B614C
:1024AC007B681B6C03F00803002B02D17B69002BAB
:1024BC0031D0786800F02AF97B681B685B6903F0FF
:1024CC004003002B23D07B681B685A697B681B6810
:1024DC0022F040025A617B689B6B002B13D07B6807
:1024EC009B6B764A5A637B689B6B1846FEF7CEFC57
:1024FC000346002B16D07B689B6B5B6B7A68926BE8
:10250C00104698470EE0786800F0ECF80AE078681E
:10251C0000F0E8F806E0786800F0E4F87B68002248
:10252C001A64C3E000BFC1E07B681B6B012B40F059
:10253C00A1807B6A03F01003002B00F09B803B6AA8
:10254C0003F01003002B00F095800023FB607B68E8
:10255C001B681B68FB607B681B685B68FB60FB6827
:10256C007B681B685B6903F04003002B4ED07B68D3
:10257C009B6B1B685B683B823B8A002B00F098804E
:10258C007B689B8D3A8A9A4280F092807B683A8A6B
:10259C00DA857B689B6B9B69202B2BD07B681B6837
:1025AC00DA687B681B6822F48072DA607B681B68CF
:1025BC005A697B681B6822F001025A617B681B68B0
:1025CC005A697B681B6822F040025A617B682022A2
:1025DC0083F83E207B6800221A637B681B68DA68EC
:1025EC007B681B6822F01002DA607B689B6B1846D4
:1025FC00FEF711FC7B689A8D7B68DB8D9BB2D31A3E
:10260C009BB21946786800F076F851E07B689A8D99
:10261C007B68DB8D9BB2D31A7B827B68DB8D9BB294
:10262C00002B47D07B8A002B44D07B681B68DA6870
:10263C007B681B6822F49072DA607B681B685A69AD
:10264C007B681B6822F001025A617B68202283F8A8
:10265C003E207B6800221A637B681B68DA687B6803
:10266C001B6822F01002DA607B8A1946786800F049
:10267C0042F81FE07B6A03F08003002B08D03B6A12
:10268C0003F08003002B03D0786800F07FF812E091
:10269C007B6A03F04003002B0DD03B6A03F0400330
:1026AC00002B08D0786800F0C0F804E000BF02E00E
:1026BC0000BF00E000BF2837BD4680BD7127000871
:1026CC0080B483B000AF786000BF0C37BD4680BCCF
:1026DC00704780B483B000AF786000BF0C37BD4644
:1026EC0080BC704780B483B000AF786000BF0C37FB
:1026FC00BD4680BC704780B483B000AF78600B4699
:10270C007B8000BF0C37BD4680BC704780B483B063
:10271C0000AF78607B681B68DA687B681B6822F402
:10272C009072DA607B681B685A697B681B6822F0C0
:10273C0001025A617B681B6B012B07D17B681B68FC
:10274C00DA687B681B6822F01002DA607B68202252
:10275C0083F83E207B6800221A6300BF0C37BD460D
:10276C0080BC704780B584B000AF78607B685B6AD2
:10277C00FB60FB680022DA85FB680022DA84F868CB
:10278C00FFF7B0FF00BF1037BD4680BD80B485B0E9
:10279C0000AF78607B6893F83D30DBB2212B3ED1E3
:1027AC007B689B68B3F5805F14D17B681B69002B39
:1027BC0010D17B681B6AFB60FB681B881A467B6820
:1027CC001B68C2F308025A607B681B6A9A1C7B6800
:1027DC001A6208E07B681B6A591C7A6811621A78C5
:1027EC007B681B685A607B68DB8C9BB2013B9BB29D
:1027FC007A681946D184002B0FD17B681B68DA6884
:10280C007B681B6822F08002DA607B681B68DA68E0
:10281C007B681B6842F04002DA60002300E0022370
:10282C0018461437BD4680BC704780B582B000AFE7
:10283C0078607B681B68DA687B681B6822F0400252
:10284C00DA607B68202283F83D207868FFF738FF38
:10285C00002318460837BD4680BD80B586B000AF52
:10286C0078607B6893F83E30DBB2222B40F0998085
:10287C007B689B68B3F5805F17D17B681B69002B65
:10288C0013D100237B617B689B6A3B617B681B686F
:10289C005B689BB2C3F308039AB23B691A807B68EE
:1028AC009B6A9A1C7B689A6226E07B689B6A7B61B8
:1028BC0000233B617B689B68B3F5805F07D07B6826
:1028CC009B68002B0AD17B681B69002B06D17B68A7
:1028DC001B685B68DAB27B691A7008E07B681B685E
:1028EC005B68DBB203F07F03DAB27B691A707B683A
:1028FC009B6A5A1C7B689A627B68DB8D9BB2013B9E
:10290C009BB27A681946D185002B48D17B681B682D
:10291C00DA687B681B6822F02002DA607B681B682F
:10292C00DA687B681B6822F48072DA607B681B684B
:10293C005A697B681B6822F001025A617B6820226D
:10294C0083F83E207B681B6B012B23D17B68002214
:10295C001A637B681B68DA687B681B6822F01002BC
:10296C00DA607B681B681B6803F01003102B0AD11C
:10297C000023FB607B681B681B68FB607B681B6823
:10298C005B68FB60FB687B689B8D19467868FFF77A
:10299C00B2FE02E07868FFF79CFE002302E0002301
:1029AC0000E0022318461837BD4680BD80B584B0C0
:1029BC0000AF78607B681B681B6923F440517B680F
:1029CC00DA687B681B680A431A617B689A687B68C3
:1029DC001B691A437B685B691343BB607B681B688C
:1029EC00DB6823F4B05323F00C037A681268B968DF
:1029FC000B43D3607B681B685B6923F440717B6875
:102A0C009A697B681B680A435A617B681B682C4A6D
:102A1C00934203D1FFF746F8F86002E0FFF72EF877
:102A2C00F860FA6813469B0013449A001A447B68BA
:102A3C005B689B00B2FBF3F3224AA2FB03235B0906
:102A4C001901FA6813469B0013449A001A447B68D8
:102A5C005B689B00B2FBF3F21A4BA3FB02035B090E
:102A6C00642000FB03F3D31A1B013233154AA2FB7B
:102A7C0003235B0903F0F0031944FA6813469B0027
:102A8C0013449A001A447B685B689B00B2FBF3F218
:102A9C000C4BA3FB02035B09642000FB03F3D31A6A
:102AAC001B013233074AA2FB03235B0903F00F021D
:102ABC007B681B680A449A6000BF1037BD4680BD16
:102ACC00003801401F85EB51014B1868704700BF5F
:102ADC001000002070B500260C4D0D4C641BA4108A
:102AEC00A64209D100F02CF900260A4D0A4C641BB1
:102AFC00A410A64205D170BD55F8043B9847013689
:102B0C00EEE755F8043B98470136F2E78C2D0008A8
:102B1C008C2D00088C2D0008902D0008024B0146CE
:102B2C00186800F07BB800BF10000020024B014673
:102B3C00186800F00BB800BF1000002003460244D8
:102B4C00934200D1704703F8011BF9E738B50546ED
:102B5C00002940D051F8043C0C1F002BB8BFE418DE
:102B6C0000F0E0F81C4A136833B96360146028461F
:102B7C00BDE8384000F0DCB8A34208D92068211821
:102B8C008B4201BF19685B6809182160EDE71A4692
:102B9C005B680BB1A342FAD911685018A0420BD153
:102BAC0020680144501883421160E0D118685B68BA
:102BBC00014411605360DAE702D90C232B60D6E78D
:102BCC00206821188B4201BF19685B6809182160C5
:102BDC0063605460CBE738BDC001002070B50E4E69
:102BEC000C463168054611B900F08CF8306021466E
:102BFC00284600F087F8431C0AD0C41C24F00304B8
:102C0C00A04207D0211A284600F07CF8013001D1EF
:102C1C004FF0FF34204670BDC40100202DE9F04177
:102C2C00CD1C25F0030508350C2D38BF0C25002DC7
:102C3C00074601DBA94205D90C2300263B60304630
:102C4C00BDE8F0812E4E00F06DF833681C4634BBA5
:102C5C0029463846FFF7C2FF431C04464DD1346861
:102C6C002646002E40D123683146384604EB030833
:102C7C0000F048F880453AD1216803356D1A25F0EB
:102C8C00030508350C2D38BF0C2538462946FFF7AF
:102C9C00A5FF01302BD023682B4423600EE0226863
:102CAC00521B1ED40B2A16D96119A342256018BFDA
:102CBC005960636808BF316062514B60384604F15B
:102CCC000B0600F035F826F00706231DF21AB6D0D5
:102CDC009B1BA350B3E76268A3420CBF32605A60DF
:102CEC00ECE723466468B2E734467668B9E70C2310
:102CFC0038463B6000F01CF8A1E72560DEE700BF1A
:102D0C00C001002038B50023054D044608462B6051
:102D1C00FDF7B0FE431C02D12B6803B1236038BD14
:102D2C00C8010020014800F009B800BFCC01002008
:102D3C00014800F004B800BFCC0100207047704778
:102D4C00F8B500BFF8BC08BC9E467047F8B500BF8C
:082D5C00F8BC08BC9E4670475C
:102D640002030405060708090A0B0C0D0E0F1010C8
:102D74000000000000000000010203040607080927
:082D840000000000010203043D
:042D8C003101000809
:042D90000D01000829
:102D94000A0000000024F4001000000001000000FC
:102DA40014000020000000000000000000000000EB
:102DB400000000000000000000000000000000000F
:102DC40000000000000000000000000000000000FF
:102DD40000000000000000000000000000000000EF
:102DE40000000000000000000000000000000000DF
:102DF40000000000000000000000000000000000CF
:042E040000000000CA
:0400000508000AF9EC
:00000001FF
