:020000040800F2
:1000000000280020111200088D110008931100082B
:10001000991100089F110008A511000800000000B8
:10002000000000000000000000000000AB1100080C
:10003000B711000800000000C3110008CF1100082C
:1000400059120008591200085912000859120008E4
:1000500059120008591200085912000859120008D4
:1000600059120008591200085912000859120008C4
:1000700059120008591200085912000859120008B4
:1000800059120008591200085912000859120008A4
:100090005912000859120008591200085912000894
:1000A0005912000859120008591200085912000884
:1000B000DD11000859120008000000005912000864
:1000C000591200080000000000000000591200084A
:1000D0000000000059120008F111000800000000A3
:1000E00059120008591200085912000800000000B7
:1000F0000000000000000000000000000000000000
:0C01000000000000000000005FF808F1A3
:1001100010B5054C237833B9044B13B10448AFF341
:1001200000800123237010BD10000020000000009B
:100130004432000808B5034B1BB103490348AFF331
:10014000008008BD000000001400002044320008B8
:1001500081F0004102E000BF83F0004330B54FEA78
:1001600041044FEA430594EA050F08BF90EA020FE5
:100170001FBF54EA000C55EA020C7FEA645C7FEA78
:10018000655C00F0E2804FEA5454D4EB5555B8BF9B
:100190006D420CDD2C4480EA020281EA030382EA0C
:1001A000000083EA010180EA020281EA0303362D9E
:1001B00088BF30BD11F0004F4FEA01314FF4801C71
:1001C0004CEA113102D0404261EB410113F0004F83
:1001D0004FEA03334CEA133302D0524263EB43033A
:1001E00094EA050F00F0A780A4F10104D5F1200ED8
:1001F0000DDB02FA0EFC22FA05F2801841F1000133
:1002000003FA0EF2801843FA05F359410EE0A5F106
:1002100020050EF1200E012A03FA0EFC28BF4CF037
:10022000020C43FA05F3C01851EBE37101F00045ED
:1002300007D54FF0000EDCF1000C7EEB00006EEBFA
:100240000101B1F5801F1BD3B1F5001F0CD3490884
:100250005FEA30004FEA3C0C04F101044FEA4452DB
:1002600012F5800F80F09A80BCF1004F08BF5FEA62
:10027000500C50F1000041EB045141EA050130BD42
:100280005FEA4C0C404141EB0101013C28BFB1F554
:10029000801FE9D291F0000F04BF01460020B1FA9F
:1002A00081F308BF2033A3F10B03B3F120020CDA72
:1002B0000C3208DD02F1140CC2F10C0201FA0CF050
:1002C00021FA02F10CE002F11402D8BFC2F1200CB5
:1002D00001FA02F120FA0CFCDCBF41EA0C0190406B
:1002E000E41AA2BF01EB0451294330BD6FEA0404B4
:1002F0001F3C1CDA0C340EDC04F11404C4F120029F
:1003000020FA04F001FA02F340EA030021FA04F3B0
:1003100045EA030130BDC4F10C04C4F1200220FA07
:1003200002F001FA04F340EA0300294630BD21FA45
:1003300004F0294630BD94F0000F83F4801306BF0B
:1003400081F480110134013D4EE77FEA645C18BFFF
:100350007FEA655C29D094EA050F08BF90EA020F96
:1003600005D054EA000C04BF1946104630BD91EA8E
:10037000030F1EBF0021002030BD5FEA545C05D191
:100380004000494128BF41F0004130BD14F58004D0
:100390003CBF01F5801130BD01F0004545F0FE4144
:1003A00041F470014FF0000030BD7FEA645C1ABF79
:1003B000194610467FEA655C1CBF0B46024650EAB0
:1003C000013406BF52EA033591EA030F41F40021DC
:1003D00030BD00BF90F0000F04BF0021704730B562
:1003E0004FF4806404F132044FF000054FF0000137
:1003F00050E700BF90F0000F04BF0021704730B5F8
:100400004FF4806404F1320410F0004548BF4042CC
:100410004FF000013EE700BF42004FEAE2014FEA21
:1004200031014FEA02701FBF12F07F4393F07F4FFC
:1004300081F06051704732F07F4208BF704793F0FF
:100440007F4F04BF41F40021704730B54FF4607412
:1004500001F0004521F000411CE700BF50EA010215
:1004600008BF704730B54FF000050AE050EA0102BE
:1004700008BF704730B511F0004502D5404261EB2E
:1004800041014FF4806404F132045FEA915C3FF46F
:10049000D8AE4FF003025FEADC0C18BF03325FEA0C
:1004A000DC0C18BF033202EBDC02C2F1200300FABD
:1004B00003FC20FA02F001FA03FE40EA0E0021FAE2
:1004C00002F11444BDE600BF70B54FF0FF0C4CF4D0
:1004D000E06C1CEA11541DBF1CEA135594EA0C0F82
:1004E00095EA0C0F00F0DEF82C4481EA030621EABD
:1004F0004C5123EA4C5350EA013518BF52EA0335F8
:1005000041F4801143F4801338D0A0FB02CE4FF0A9
:100510000005E1FB02E506F00042E0FB03E54FF0D9
:100520000006E1FB03569CF0000F18BF4EF0010ED1
:10053000A4F1FF04B6F5007F64F5407404D25FEACD
:100540004E0E6D4146EB060642EAC62141EA555180
:100550004FEAC52040EA5E504FEACE2EB4F1FD0CC2
:1005600088BFBCF5E06F1ED8BEF1004F08BF5FEA40
:10057000500E50F1000041EB045170BD06F00046F2
:1005800046EA010140EA020081EA0301B4EB5C049F
:10059000C2BFD4EB0C0541EA045170BD41F4801197
:1005A0004FF0000E013C00F3AB8014F1360FDEBFBC
:1005B000002001F0004170BDC4F10004203C35DA98
:1005C0000C341BDC04F11404C4F1200500FA05F31B
:1005D00020FA04F001FA05F240EA020001F00042BC
:1005E00021F0004110EBD37021FA04F642EB060132
:1005F0005EEA430E08BF20EAD37070BDC4F10C045C
:10060000C4F1200500FA04F320FA05F001FA04F21F
:1006100040EA020001F0004110EBD37041F100010B
:100620005EEA430E08BF20EAD37070BDC4F1200516
:1006300000FA05F24EEA020E20FA04F301FA05F27E
:1006400043EA020321FA04F001F0004121FA04F226
:1006500020EA020000EBD3705EEA430E08BF20EAF6
:10066000D37070BD94F0000F0FD101F00046400030
:1006700041EB010111F4801F08BF013CF7D041EAB2
:10068000060195F0000F18BF704703F000465200B6
:1006900043EB030313F4801F08BF013DF7D043EA87
:1006A0000603704794EA0C0F0CEA135518BF95EA3D
:1006B0000C0F0CD050EA410618BF52EA4306D1D1C4
:1006C00081EA030101F000414FF0000070BD50EAE3
:1006D000410606BF1046194652EA430619D094EA6D
:1006E0000C0F02D150EA013613D195EA0C0F05D157
:1006F00052EA03361CBF104619460AD181EA0301AB
:1007000001F0004141F0FE4141F470014FF0000062
:1007100070BD41F0FE4141F4780170BD70B54FF0FD
:10072000FF0C4CF4E06C1CEA11541DBF1CEA13557D
:1007300094EA0C0F95EA0C0F00F0A7F8A4EB05045F
:1007400081EA030E52EA03354FEA013100F0888056
:100750004FEA03334FF0805545EA131343EA12631F
:100760004FEA022245EA111545EA10654FEA0026D4
:100770000EF000419D4208BF964244F1FD0404F58D
:10078000407402D25B084FEA3202B61A65EB0305E9
:100790005B084FEA32024FF480104FF4002CB6EBA6
:1007A000020E75EB030E22BFB61A754640EA0C0026
:1007B0005B084FEA3202B6EB020E75EB030E22BF66
:1007C000B61A754640EA5C005B084FEA3202B6EBA7
:1007D000020E75EB030E22BFB61A754640EA9C0066
:1007E0005B084FEA3202B6EB020E75EB030E22BF36
:1007F000B61A754640EADC0055EA060E18D04FEAF4
:10080000051545EA16754FEA06164FEAC30343EA93
:1008100052734FEAC2025FEA1C1CC0D111F4801F60
:100820000BD141EA00014FF000004FF0004CB6E759
:1008300011F4801F04BF01430020B4F1FD0C88BFF8
:10084000BCF5E06F3FF6AFAEB5EB030C04BFB6EB03
:10085000020C5FEA500C50F1000041EB045170BDF6
:100860000EF0004E4EEA113114EB5C04C2BFD4EB23
:100870000C0541EA045170BD41F480114FF0000EA7
:10088000013C90E645EA060E8DE60CEA135594EA23
:100890000C0F08BF95EA0C0F3FF43BAF94EA0C0F26
:1008A0000AD150EA01347FF434AF95EA0C0F7FF49B
:1008B00025AF104619462CE795EA0C0F06D152EAEF
:1008C00003353FF4FDAE1046194622E750EA4106D3
:1008D00018BF52EA43067FF4C5AE50EA41047FF4E4
:1008E0000DAF52EA43057FF4EBAE12E74FEA410247
:1008F00012F5001215D211D56FF47873B3EB625272
:1009000012D94FEAC12343F0004343EA505311F098
:10091000004F23FA02F018BF404270474FF000002A
:10092000704750EA013005D111F0004008BF6FF068
:10093000004070474FF00000704700BF80B500AF27
:100940002021024801F03EF800BF80BD00080140B0
:1009500080B500AF4021024801F034F800BF80BDEF
:100960000008014080B500AF8021024801F02AF85C
:1009700000BF80BD0008014080B500AF4FF480711A
:10098000024801F01FF800BF80BD00BF0008014011
:1009900080B500AF4FF40071024801F013F800BFBA
:1009A00080BD00BF0008014080B500AF4FF48061FA
:1009B000024801F007F800BF80BD00BF00080140F9
:1009C00080B500AF00F04AFC00F044F800F036F9C2
:1009D00000F07EF800F008F9174801F077FC00F00D
:1009E00073F94FF4FA720021144800F087F94FF4BC
:1009F0007A720521124800F081F940F2DC520A2196
:100A0000104800F07BF94FF4FA620F210E4800F015
:100A100075F940F6C41214210C4800F06FF9002259
:100A20004FF47A710A4800F069F94FF47A7000F0D7
:100A3000CDFA00F02FFAFCE72C0000203D09000859
:100A400051090008650900087909000891090008A2
:100A5000A909000880B590B000AF07F1180328225B
:100A60000021184602F0E6FB3B1D00221A605A6086
:100A70009A60DA601A610223BB610123BB62102312
:100A8000FB6200237B6307F11803184600F0B4FFF4
:100A90000346002B01D000F011F90F237B600023E7
:100AA000BB600023FB6000233B6100237B613B1D97
:100AB0000021184601F022FA0346002B01D000F075
:100AC000FDF800BF4037BD4680BD000000000000BB
:100AD000B0B586B000AF07F1080300221A605A6073
:100AE0009A60DA603B4600221A605A603A4B4FF037
:100AF00080421A60384B41F63F725A60364B0022F2
:100B00009A60354B0A22DA60334B00221A61324B6D
:100B100000229A61304801F089FB0346002B01D086
:100B200000F0CCF84FF48053BB6007F1080319467E
:100B3000294801F01FFD0346002B01D000F0BEF84C
:100B400000233B6000237B603B461946224801F0AE
:100B5000E7FE0346002B01D000F0B0F81E4B5B68A7
:100B600001331846FFF736FC02460B4618A1D1E9BF
:100B70000001FFF7D3FD02460B4614461D46164BF7
:100B8000DB681846FFF726FC02460B46204629463E
:100B9000FFF7C4FD02460B464FF000000F49FFF778
:100BA000BDFD02460B46104619464FF000020C4BA5
:100BB000FFF78AFC02460B4610461946FFF796FEE1
:100BC0000346084A136000BF1837BD46B0BD00BFDA
:100BD0000000000080845E412C0000200000F03FF7
:100BE00000408F400000002080B500AF114B124A3A
:100BF0001A60104B4FF416525A600E4B00229A6046
:100C00000C4B0022DA600B4B00221A61094B0C22BC
:100C10005A61084B00229A61064B0022DA610548AE
:100C200001F0E8FE0346002B01D000F047F800BFBA
:100C300080BD00BF740000200044004080B586B035
:100C400000AF07F1080300221A605A609A60DA6068
:100C5000124B9B69114A43F0040393610F4B9B694C
:100C600003F004037B607B6800224FF4FC610C48B6
:100C700000F090FE4FF4FC63BB600123FB60002397
:100C80003B6102237B6107F108031946044800F029
:100C900005FD00BF1837BD4680BD00BF00100240F3
:100CA0000008014080B582B000AF786000F084F8A1
:100CB00000F0A6F900BF0837BD4680BD80B400AF84
:100CC00072B600BFFEE7000080B582B000AF00231F
:100CD000FB7106E0FB79184600F028F9FB79013337
:100CE000FB71FB79272BF5D9034B00221A7000BF4B
:100CF0000837BD4680BD00BFD803002080B487B050
:100D000000AFF860B9607A600023FB7502E0FB7DFC
:100D10000133FB75FA7D254913469B0013449B0064
:100D20000B441B68002B02D0FB7D272BEFD9FB7DEA
:100D3000282B04D11E4B08221A70282331E0FA7D9B
:100D40001A4913469B0013449B000B44FA681A602F
:100D5000184B1B681946FA7DBB68B3FBF1F11348C9
:100D600013469B0013449B00034404331960114B4A
:100D70001B681946FA7D7B68B3FBF1F10B481346FB
:100D80009B0013449B00034408331960FA7D074914
:100D900013469B0013449B000B440C3300221A7033
:100DA000FB7D18461C37BD4680BC7047B80000204C
:100DB000D80300200000002080B483B000AF0023DF
:100DC000FB715CE0FA79324913469B0013449B00A7
:100DD0000B441B68002B4FD0FA792D4913469B001A
:100DE00013449B000B4404331B68002B32D1FA7967
:100DF000274913469B0013449B000B440C331B787C
:100E0000FA790133D8B2224913469B0013449B0060
:100E10000B440C3302461A70FA791D4913469B00A5
:100E200013449B000B4408331B68002B24D0F97932
:100E3000FA7917480B469B000B449B000344083388
:100E40001968134813469B0013449B000344043362
:100E5000196011E0FA790E4913469B0013449B0078
:100E60000B4404331B68591E094813469B00134466
:100E70009B00034404331960FB790133FB71FB7958
:100E8000272B9FD900BF00BF0C37BD4680BC7047E1
:100E9000B800002080B582B000AF0023FB713AE0BB
:100EA000FA79214913469B0013449B000B440C33F1
:100EB0001B78002B2CD0FA791B4913469B00134456
:100EC0009B000B441B689847FA79174913469B000F
:100ED00013449B000B440C331B78FA79013BD8B2C6
:100EE000114913469B0013449B000B440C330246EC
:100EF0001A70FA790C4913469B0013449B000B446B
:100F000008331B68002B03D1FB79184600F00EF85C
:100F1000FB790133FB71FB79272BC1D900BF00BFDF
:100F20000837BD4680BD00BFB800002080B485B042
:100F300000AF0346FB71FA791F4913469B00134427
:100F40009B000B441B68002B06D11C4BDAB21C4BD8
:100F50001A701C4BFB7301E01B4BFB73FA791649AB
:100F600013469B0013449B000B4400221A60FA793D
:100F7000114913469B0013449B000B440433002289
:100F80001A60FA790C4913469B0013449B000B44EA
:100F9000083300221A60FA79074913469B0013446C
:100FA0009B000B440C3300221A70FB7B184614374D
:100FB000BD4680BC704700BFB80000205C3200080E
:100FC000D8030020703200087832000880B483B063
:100FD00000AF7860074B1B687A6892FBF3F3064A10
:100FE0001360064B00221A6000BF0C37BD4680BC60
:100FF000704700BF00000020DC030020E403002055
:1010000080B400AF114B1B68002B0BDD0F4B1B682E
:10101000013B0E4A13600D4B1B68002B02DC0C4B8E
:1010200001221A600B4B1B68002B0BDD094B1B6860
:10103000013B084A1360074B1B68002B02DC064B80
:1010400001221A6000BFBD4680BC7047DC0300204F
:10105000E4030020E0030020E803002080B483B014
:1010600000AF0E4B9B690D4A43F0010393610B4B9C
:101070009B6903F001037B607B68084BDB69074ACF
:1010800043F08053D361054BDB6903F080533B6031
:101090003B6800BF0C37BD4680BC70470010024063
:1010A00080B584B000AF78607B681B68B3F1804F77
:1010B00013D10C4BDB690B4A43F00103D361094B9D
:1010C000DB6903F00103FB60FB68002200211C20A8
:1010D00000F0FDF91C2000F016FA00BF1037BD46E5
:1010E00080BD00BF0010024080B588B000AF7860BE
:1010F00007F1100300221A605A609A60DA607B6878
:101100001B681F4A934237D11E4BDB691D4A43F4CB
:101110000033D3611B4BDB6903F40033FB60FB68D6
:10112000184B9B69174A43F004039361154B9B6965
:1011300003F00403BB60BB6804233B6102237B61B3
:101140000323FB6107F1100319460F4800F0A6FACC
:1011500008233B6100237B610023BB6107F110037F
:101160001946094800F09AFA00220021262000F0D2
:10117000AEF9262000F0C7F900BF2037BD4680BD7C
:1011800000440040001002400008014080B400AF5D
:10119000FEE780B400AFFEE780B400AFFEE780B4A6
:1011A00000AFFEE780B400AFFEE780B400AF00BF41
:1011B000BD4680BC704780B400AF00BFBD4680BC58
:1011C000704780B400AF00BFBD4680BC704780B59B
:1011D00000AF00F089F800BF80BD000080B500AF0F
:1011E000024801F0BFF800BF80BD00BF2C00002006
:1011F00080B500AF024801F04BFC00BF80BD00BFCE
:101200007400002080B400AF00BFBD4680BC7047B2
:101210000C480D490D4A002302E0D458C450043351
:10122000C4188C42F9D30A4A0A4C002301E0136027
:101230000432A242FBD3FFF7E5FF01F0D7FFFFF72F
:10124000BFFB70470000002010000020B0320008F3
:1012500010000020F0030020FEE7000080B500AF82
:10126000084B1B68074A43F010031360032000F08B
:1012700023F90F2000F008F8FFF7F0FE00231846CE
:1012800080BD00BF0020024080B582B000AF786012
:10129000124B1A68124B1B7819464FF47A73B3FB42
:1012A000F1F3B2FBF3F3184600F03BF90346002BD1
:1012B00001D001230EE07B680F2B0AD80022796849
:1012C0004FF0FF3000F003F9064A7B6813600023FB
:1012D00000E0012318460837BD4680BD0400002009
:1012E0000C0000200800002080B400AF054B1B78E4
:1012F0001A46054B1B681344034A136000BFBD46E2
:1013000080BC70470C000020EC03002080B400AFCC
:10131000024B1B681846BD4680BC7047EC0300209A
:1013200080B485B000AF78607B6803F00703FB6092
:101330000C4BDB68BB60BA684FF6FF031340BB6021
:10134000FB681A02BB68134343F0BF6343F40033E6
:10135000BB60044ABB68D36000BF1437BD4680BC85
:10136000704700BF00ED00E080B400AF044BDB68C5
:101370001B0A03F007031846BD4680BC704700BF38
:1013800000ED00E080B483B000AF0346FB7197F935
:101390000730002B0BDBFB7903F01F02064997F99E
:1013A00007305B09012000FA02F241F8232000BF58
:1013B0000C37BD4680BC704700E100E080B483B0CC
:1013C00000AF03463960FB7197F90730002B0ADB49
:1013D0003B68DAB20C4997F907301201D2B20B44DC
:1013E00083F800230AE03B68DAB20849FB7903F08E
:1013F0000F03043B1201D2B20B441A7600BF0C3724
:10140000BD4680BC704700BF00E100E000ED00E099
:1014100080B489B000AFF860B9607A60FB6803F00F
:101420000703FB61FB69C3F10703042B28BF0423F7
:10143000BB61FB690433062B02D9FB69033B00E067
:1014400000237B614FF0FF32BB6902FA03F3DA43FA
:10145000BB681A407B699A404FF0FF317B6901FA03
:1014600003F3D9437B680B40134318462437BD462A
:1014700080BC704780B582B000AF78607B68013B6C
:10148000B3F1807F01D301230FE00A4A7B68013B5F
:1014900053600F214FF0FF30FFF790FF054B002204
:1014A0009A60044B07221A60002318460837BD468D
:1014B00080BD00BF10E000E080B582B000AF786072
:1014C0007868FFF72DFF00BF0837BD4680BD80B5A7
:1014D00086B000AF0346B9607A60FB7300237B617E
:1014E000FFF742FF78617A68B9687869FFF790FF83
:1014F000024697F90F3011461846FFF75FFF00BF0D
:101500001837BD4680BD80B582B000AF0346FB7181
:1015100097F907301846FFF735FF00BF0837BD467B
:1015200080BD80B582B000AF78607868FFF7A2FF19
:10153000034618460837BD4680BD80B485B000AF6D
:1015400078600023FB737B6893F82130022B08D06E
:101550007B6804229A637B68002283F820200123A1
:1015600020E07B681B681A687B681B6822F00E020B
:101570001A607B681B681A687B681B6822F001028E
:101580001A607B681A6C7B68DB6B012101FA02F23E
:101590005A607B68012283F821207B68002283F84F
:1015A0002020FB7B18461437BD4680BC70470000E6
:1015B00080B584B000AF78600023FB737B6893F83C
:1015C0002130022B05D07B6804229A630123FB7330
:1015D00051E07B681B681A687B681B6822F00E026A
:1015E0001A607B681B681A687B681B6822F001021E
:1015F0001A607B681B68224A934229D07B681B686B
:10160000204A934222D07B681B681F4A93421AD01B
:101610007B681B681D4A934212D07B681B681C4A7A
:1016200093420AD07B681B681A4A934202D14FF456
:1016300080130EE04FF080730BE04FF4803308E02E
:101640004FF4805305E04FF4807302E0102300E074
:101650000123114A53607B68012283F821207B68B3
:10166000002283F820207B685B6B002B03D07B6813
:101670005B6B78689847FB7B18461037BD4680BD8A
:10168000080002401C0002403000024044000240BA
:10169000580002406C0002400000024080B48BB051
:1016A00000AF7860396000237B6200233B6261E118
:1016B00001227B6A02FA03F3FB613B681B68FA694B
:1016C0001340BB61BA69FB699A4240F050813B68A4
:1016D0005B68974A93425ED0954A934275D8954A83
:1016E000934258D0934A93426FD8934A934252D030
:1016F000914A934269D8914A93424CD08F4A93427F
:1017000063D88F4A934246D08D4A93425DD8122BBC
:101710002AD8122B59D801A252F823F097170008A3
:101720007117000883170008C5170008CB170008B9
:10173000CB170008CB170008CB170008CB17000801
:10174000CB170008CB170008CB170008CB170008F1
:10175000CB170008CB170008CB170008CB170008E1
:10176000791700088D170008764A934213D02CE0B1
:101770003B68DB683B6229E03B68DB6804333B6223
:1017800024E03B68DB6808333B621FE03B68DB68B2
:101790000C333B621AE03B689B68002B02D10423A8
:1017A0003B6213E03B689B68012B05D108233B6239
:1017B0007B68FA691A6109E008233B627B68FA6971
:1017C0005A6103E000233B6200E000BFBB69FF2BCE
:1017D00001D87B6801E07B6804337B61BB69FF2B28
:1017E00002D87B6A9B0002E07B6A083B9B003B615E
:1017F0007B691A680F213B6901FA03F3DB431A4046
:10180000396A3B6901FA03F31A437B691A603B6842
:101810005B6803F08053002B00F0A9804A4B9B6962
:10182000494A43F001039361474B9B6903F001036D
:10183000BB60BB68454A7B6A9B08023352F8233081
:10184000FB607B6A03F003039B000F2202FA03F3A1
:10185000DB43FA681340FB607B683D4A93420DD03E
:101860007B683C4A934207D07B683B4A934201D154
:10187000022304E0032302E0012300E000237A6A4C
:1018800002F0030292009340FA681343FB602F4971
:101890007B6A9B080233FA6841F823203B685B6847
:1018A00003F48033002B06D02C4B1A682B49BB69FC
:1018B00013430B6006E0294B1A68BB69DB432749D9
:1018C00013400B603B685B6803F40033002B06D0C9
:1018D000224B5A682149BB6913434B6006E01F4BFA
:1018E0005A68BB69DB431D4913404B603B685B682A
:1018F00003F48013002B06D0184B9A681749BB6974
:1019000013438B6006E0154B9A68BB69DB431349B0
:1019100013408B603B685B6803F40013002B1FD0FF
:101920000E4BDA680D49BB691343CB601FE000BF63
:1019300000003210000031100000221000002110C1
:1019400000001210000011100010024000000140C1
:1019500000080140000C014000100140000401405B
:101960000B4BDA68BB69DB4309491340CB607B6AE8
:1019700001337B623B681A687B6A22FA03F3002B0F
:101980007FF496AE00BF00BF2C37BD4680BC7047C9
:101990000004014080B483B000AF78600B467B80C8
:1019A00013467B707B78002B03D07A887B681A61A2
:1019B00003E07B881A047B681A6100BF0C37BD46C0
:1019C00080BC704780B485B000AF78600B467B80E8
:1019D0007B68DB68FB607A88FB6813401A04FB684D
:1019E000D9437B880B401A437B681A6100BF1437C8
:1019F000BD4680BC7047000080B586B000AF7860FF
:101A00007B68002B01D1012372E27B681B6803F025
:101A10000103002B00F08780924B5B6803F00C03FE
:101A2000042B0CD08F4B5B6803F00C03082B12D1F6
:101A30008C4B5B6803F48033B3F5803F0BD1894B4B
:101A40001B6803F40033002B6CD07B685B68002BB1
:101A500068D101234CE27B685B68B3F5803F06D117
:101A6000804B1B687F4A43F4803313602EE07B6811
:101A70005B68002B0CD17B4B1B687A4A23F48033C4
:101A80001360784B1B68774A23F4802313601DE0B2
:101A90007B685B68B3F5A02F0CD1724B1B68714A51
:101AA00043F4802313606F4B1B686E4A43F480330A
:101AB00013600BE06B4B1B686A4A23F4803313609E
:101AC000684B1B68674A23F4802313607B685B685C
:101AD000002B13D0FFF71AFC386108E0FFF716FC63
:101AE00002463B69D31A642B01D9032300E25D4B04
:101AF0001B6803F40033002BF0D014E0FFF706FC62
:101B0000386108E0FFF702FC02463B69D31A642BF8
:101B100001D90323ECE1534B1B6803F40033002B82
:101B2000F0D100E000BF7B681B6803F00203002BCC
:101B300063D04C4B5B6803F00C03002B0BD0494B7C
:101B40005B6803F00C03082B1CD1464B5B6803F465
:101B50008033002B16D1434B1B6803F00203002B8C
:101B600005D07B681B69012B01D00123C0E13D4BEF
:101B70001B6823F0F8027B685B69DB00394913437B
:101B80000B603AE07B681B69002B20D0364B0122AA
:101B90001A60FFF7BBFB386108E0FFF7B7FB0246AE
:101BA0003B69D31A022B01D90323A1E12D4B1B68FA
:101BB00003F00203002BF0D02A4B1B6823F0F8023D
:101BC0007B685B69DB00274913430B6015E0264BFC
:101BD00000221A60FFF79AFB386108E0FFF796FBD6
:101BE00002463B69D31A022B01D9032380E11D4B26
:101BF0001B6803F00203002BF0D17B681B6803F025
:101C00000803002B3AD07B689B69002B19D0174B37
:101C100001221A60FFF77AFB386108E0FFF776FBD4
:101C200002463B69D31A022B01D9032360E10D4B15
:101C30005B6A03F00203002BF0D0012000F0D8FA19
:101C40001CE00A4B00221A60FFF760FB38610FE0CE
:101C5000FFF75CFB02463B69D31A022B08D903232A
:101C600046E100BF001002400000424280044242B0
:101C7000924B5B6A03F00203002BE9D17B681B687F
:101C800003F00403002B00F0A6800023FB758B4BB0
:101C9000DB6903F08053002B0DD1884BDB69874A49
:101CA00043F08053D361854BDB6903F08053BB6005
:101CB000BB680123FB75824B1B6803F48073002B08
:101CC00018D17F4B1B687E4A43F480731360FFF783
:101CD0001DFB386108E0FFF719FB02463B69D31A88
:101CE000642B01D9032303E1754B1B6803F4807354
:101CF000002BF0D07B68DB68012B06D16F4B1B6A91
:101D00006E4A43F0010313622DE07B68DB68002B11
:101D10000CD16A4B1B6A694A23F001031362674BBB
:101D20001B6A664A23F0040313621CE07B68DB68CD
:101D3000052B0CD1614B1B6A604A43F0040313620C
:101D40005E4B1B6A5D4A43F0010313620BE05B4B81
:101D50001B6A5A4A23F001031362584B1B6A574A05
:101D600023F0040313627B68DB68002B15D0FFF7B8
:101D7000CDFA38610AE0FFF7C9FA02463B69D31A87
:101D800041F28832934201D90323B1E04B4B1B6AE5
:101D900003F00203002BEED014E0FFF7B7FA38612E
:101DA0000AE0FFF7B3FA02463B69D31A41F28832E0
:101DB000934201D903239BE0404B1B6A03F00203CB
:101DC000002BEED1FB7D012B05D13C4BDB693B4A5F
:101DD00023F08053D3617B68DB69002B00F08780A0
:101DE000364B5B6803F00C03082B61D07B68DB6922
:101DF000022B46D1334B00221A60FFF787FA386175
:101E000008E0FFF783FA02463B69D31A022B01D997
:101E100003236DE0294B1B6803F00073002BF0D106
:101E20007B681B6AB3F5803F08D1244B5B6823F4C1
:101E300000327B689B68214913434B601F4B5B68F2
:101E400023F474127B68196A7B685B6A0B431B4935
:101E500013434B601B4B01221A60FFF757FA38619E
:101E600008E0FFF753FA02463B69D31A022B01D967
:101E700003233DE0114B1B6803F00073002BF0D0EF
:101E800035E0104B00221A60FFF740FA386108E095
:101E9000FFF73CFA02463B69D31A022B01D9032310
:101EA00026E0064B1B6803F00073002BF0D11EE008
:101EB0007B68DB69012B07D1012319E00010024088
:101EC00000700040600042420B4B5B68FB60FB68A7
:101ED00003F480327B681B6A9A4206D1FB6803F4E4
:101EE00070127B685B6A9A4201D0012300E00023F4
:101EF00018461837BD4680BD0010024080B584B03A
:101F000000AF786039607B68002B01D10123D0E0FD
:101F10006A4B1B6803F007033A689A4210D9674B73
:101F20001B6823F0070265493B6813430B60634B52
:101F30001B6803F007033A689A4201D00123B8E016
:101F40007B681B6803F00203002B20D07B681B68B2
:101F500003F00403002B05D0594B5B68584A43F447
:101F6000E06353607B681B6803F00803002B05D017
:101F7000534B5B68524A43F460535360504B5B6869
:101F800023F0F0027B689B684D4913434B607B68EC
:101F90001B6803F00103002B40D07B685B68012BBA
:101FA00007D1474B1B6803F40033002B15D10123E5
:101FB0007FE07B685B68022B07D1414B1B6803F015
:101FC0000073002B09D1012373E03D4B1B6803F024
:101FD0000203002B01D101236BE0394B5B6823F036
:101FE00003027B685B68364913434B60FFF78EF949
:101FF000F8600AE0FFF78AF90246FB68D31A41F25B
:102000008832934201D9032353E02D4B5B6803F0E0
:102010000C027B685B689B009A42EBD1274B1B68E4
:1020200003F007033A689A4210D2244B1B6823F04E
:10203000070222493B6813430B60204B1B6803F0E7
:1020400007033A689A4201D0012332E07B681B689B
:1020500003F00403002B08D0194B5B6823F4E06203
:102060007B68DB68164913434B607B681B6803F091
:102070000803002B09D0124B5B6823F460527B6885
:102080001B69DB000E4913434B6000F021F8024648
:102090000B4B5B681B0903F00F030A49CB5C22FA68
:1020A00003F3094A1360094B1B681846FFF7ECF865
:1020B000002318461037BD4680BD00BF00200240F7
:1020C00000100240903200080400002008000020A8
:1020D00090B48AB000AF294B3C1D0FCB84E80F00B1
:1020E00040F201233B800023FB610023BB610023FE
:1020F0007B6200237B6100233B62214B5B68FB61B9
:10210000FB6903F00C03042B02D0082B03D02BE057
:102110001C4B3B622BE0FB699B0C03F00F03283345
:102120003B4413F8243C7B61FB6903F48033002BB0
:1021300012D0134B5B685B0C03F0010328333B4464
:1021400013F8283CBB617B690E4A03FB02F2BB69B2
:10215000B2FBF3F37B6204E07B690B4A02FB03F3FF
:102160007B627B6A3B6202E0064B3B6200BF3B6ADC
:1021700018462837BD4690BC704700BF8032000823
:102180000010024000127A0000093D0080B400AF48
:10219000024B1B681846BD4680BC704704000020F7
:1021A00080B500AFFFF7F2FF0246054B5B681B0AE4
:1021B00003F007030349CB5C22FA03F3184680BD02
:1021C00000100240A032000880B500AFFFF7DEFF2C
:1021D0000246054B5B68DB0A03F007030349CB5C4F
:1021E00022FA03F3184680BD00100240A032000816
:1021F00080B485B000AF78600A4B1B680A4AA2FB26
:1022000003235B0A7A6802FB03F3FB6000BFFB68F1
:102210005A1EFA60002BF9D100BF00BF1437BD462B
:1022200080BC704704000020D34D621080B582B09E
:1022300000AF78607B68002B01D1012341E07B680F
:1022400093F83D30DBB2002B06D17B68002283F887
:102250003C207868FEF724FF7B68022283F83D204B
:102260007B681A687B6804331946104600F06AFAE6
:102270007B68012283F846207B68012283F83E2098
:102280007B68012283F83F207B68012283F840208D
:102290007B68012283F841207B68012283F8422079
:1022A0007B68012283F843207B68012283F8442065
:1022B0007B68012283F845207B68012283F83D205A
:1022C000002318460837BD4680BD000080B485B0A5
:1022D00000AF78607B6893F83D30DBB2012B01D012
:1022E000012335E07B68022283F83D207B681B6870
:1022F000DA687B681B6842F00102DA607B681B6861
:10230000164A934209D07B681B68B3F1804F04D012
:102310007B681B68124A934211D17B681B689B68DB
:1023200003F00703FB60FB68062B10D07B681B687B
:102330001A687B681B6842F001021A6007E07B683C
:102340001B681A687B681B6842F001021A60002350
:1023500018461437BD4680BC704700BF002C0140B2
:102360000004004080B582B000AF78607B681B68D5
:102370001B6903F00203022B22D17B681B68DB6818
:1023800003F00203022B1BD17B681B686FF0020273
:102390001A617B6801221A777B681B689B6903F0CE
:1023A0000303002B03D0786800F0B1F905E07868EA
:1023B00000F0A4F9786800F0B3F97B6800221A777E
:1023C0007B681B681B6903F00403042B22D17B6824
:1023D0001B68DB6803F00403042B1BD17B681B68BC
:1023E0006FF004021A617B6802221A777B681B680F
:1023F0009B6903F44073002B03D0786800F087F9E1
:1024000005E0786800F07AF9786800F089F97B686F
:1024100000221A777B681B681B6903F00803082BEE
:1024200022D17B681B68DB6803F00803082B1BD1F3
:102430007B681B686FF008021A617B6804221A77B8
:102440007B681B68DB6903F00303002B03D078680B
:1024500000F05DF905E0786800F050F9786800F068
:102460005FF97B6800221A777B681B681B6903F0A1
:102470001003102B22D17B681B68DB6803F010036C
:10248000102B1BD17B681B686FF010021A617B68F0
:1024900008221A777B681B68DB6903F44073002B02
:1024A00003D0786800F033F905E0786800F026F989
:1024B000786800F035F97B6800221A777B681B6822
:1024C0001B6903F00103012B0ED17B681B68DB68DD
:1024D00003F00103012B07D17B681B686FF0010239
:1024E0001A617868FEF7DEFB7B681B681B6903F0E6
:1024F0008003802B0ED17B681B68DB6803F08003B0
:10250000802B07D17B681B686FF080021A617868A6
:1025100000F067FA7B681B681B6903F04003402BDF
:102520000ED17B681B68DB6803F04003402B07D1AA
:102530007B681B686FF040021A61786800F0F9F858
:102540007B681B681B6903F02003202B0ED17B687E
:102550001B68DB6803F02003202B07D17B681B6816
:102560006FF020021A61786800F032FA00BF083775
:10257000BD4680BD80B584B000AF786039607B68AF
:1025800093F83C30012B01D10223B3E07B68012298
:1025900083F83C207B68022283F83D207B681B681F
:1025A0009B68FB60FB6823F07703FB60FB6823F408
:1025B0007F43FB607B681B68FA689A603B681B6816
:1025C000B3F5005F3ED0B3F5005F00F28780B3F54E
:1025D000805F00F08580B3F5805F7FD8702B1AD0C4
:1025E000702B7BD8602B50D0602B77D8502B3CD0F1
:1025F000502B73D8402B58D0402B6FD8302B64D041
:10260000302B6BD8202B60D0202B67D8002B5CD0D0
:10261000102B5AD062E07B6818683B6899683B6869
:102620005A683B68DB6800F05CF97B681B689B6854
:10263000FB60FB6843F07703FB607B681B68FA680C
:102640009A604EE07B6818683B6899683B685A68F6
:102650003B68DB6800F045F97B681B689A687B681B
:102660001B6842F480429A603BE07B6818683B68D4
:1026700059683B68DB681A4600F0BCF87B681B6849
:102680005021184600F013F92BE07B6818683B686E
:1026900059683B68DB681A4600F0DAF87B681B680B
:1026A0006021184600F003F91BE07B6818683B685E
:1026B00059683B68DB681A4600F09CF87B681B6829
:1026C0004021184600F0F3F80BE07B681A683B687D
:1026D0001B681946104600F0EAF802E000BF00E06F
:1026E00000BF7B68012283F83D207B68002283F8CD
:1026F0003C20002318461037BD4680BD80B483B00F
:1027000000AF786000BF0C37BD4680BC704780B416
:1027100083B000AF786000BF0C37BD4680BC704707
:1027200080B483B000AF786000BF0C37BD4680BC7A
:10273000704780B483B000AF786000BF0C37BD46EF
:1027400080BC704780B485B000AF786039607B682A
:102750001B68FB607B68254A934207D07B68B3F116
:10276000804F03D07B68224A934208D1FB6823F054
:102770007003FB603B685B68FA681343FB607B682F
:102780001A4A934207D07B68B3F1804F03D07B682D
:10279000174A934208D1FB6823F44073FB603B68FF
:1027A000DB68FA681343FB60FB6823F080023B6838
:1027B0005B691343FB607B68FA681A603B689A6840
:1027C0007B68DA623B681A687B689A627B68074AB2
:1027D000934203D13B681A697B681A637B680122C4
:1027E0005A6100BF1437BD4680BC7047002C0140C1
:1027F0000004004080B487B000AFF860B9607A6030
:10280000FB681B6A7B61FB681B6A23F00102FB68A3
:102810001A62FB689B693B613B6923F0F0033B61F3
:102820007B681B013A6913433B617B6923F00A0310
:102830007B617A69BB6813437B61FB683A699A6183
:10284000FB687A691A6200BF1C37BD4680BC7047BE
:1028500080B487B000AFF860B9607A60FB681B6A2B
:1028600023F01002FB681A62FB689B697B61FB68BE
:102870001B6A3B617B6923F470437B617B681B03AC
:102880007A6913437B613B6923F0A0033B61BB681A
:102890001B013A6913433B61FB687A699A61FB68E3
:1028A0003A691A6200BF1C37BD4680BC704780B4CD
:1028B00085B000AF786039607B689B68FB60FB681F
:1028C00023F07003FB603A68FB68134343F007038F
:1028D000FB607B68FA689A6000BF1437BD4680BC15
:1028E000704780B487B000AFF860B9607A603B6031
:1028F000FB689B687B617B6923F47F437B613B685A
:102900001A027B681A43BB6813437A6913437B61DD
:10291000FB687A699A6000BF1C37BD4680BC70476F
:1029200080B485B000AF786039607B6893F83C3044
:10293000012B01D1022341E07B68012283F83C2076
:102940007B68022283F83D207B681B685B68FB6024
:102950007B681B689B68BB60FB6823F07003FB60AF
:102960003B681B68FA681343FB607B681B68FA6866
:102970005A607B681B68144A934209D07B681B68C5
:10298000B3F1804F04D07B681B68104A93420CD18E
:10299000BB6823F08003BB603B685B68BA68134385
:1029A000BB607B681B68BA689A607B68012283F809
:1029B0003D207B68002283F83C2000231846143712
:1029C000BD4680BC704700BF002C014000040040A1
:1029D00080B483B000AF786000BF0C37BD4680BCC8
:1029E000704780B483B000AF786000BF0C37BD463D
:1029F00080BC704780B582B000AF78607B68002BE8
:102A000001D101233FE07B6893F83D30DBB2002B1E
:102A100006D17B68002283F83C207868FEF764FBCF
:102A20007B68242283F83D207B681B68DA687B681A
:102A30001B6822F40052DA60786800F049FB7B687A
:102A40001B681A697B681B6822F490421A617B68D4
:102A50001B685A697B681B6822F02A025A617B68EE
:102A60001B68DA687B681B6842F40052DA607B6896
:102A700000221A647B68202283F83D207B68202294
:102A800083F83E20002318460837BD4680BD00006D
:102A900080B58AB000AF78607B681B681B687B627A
:102AA0007B681B68DB683B627B681B685B69FB615A
:102AB0000023BB6100237B617B6A03F00F03BB61D2
:102AC000BB69002B0DD17B6A03F02003002B08D0DB
:102AD0003B6A03F02003002B03D0786800F04FFA24
:102AE0007BE1BB69002B00F0B180FB6903F00103BF
:102AF000002B05D13B6A03F49073002B00F0A680F5
:102B00007B6A03F00103002B0AD03B6A03F4807355
:102B1000002B05D07B681B6C43F001027B681A64B4
:102B20007B6A03F00403002B0AD0FB6903F0010366
:102B3000002B05D07B681B6C43F002027B681A6493
:102B40007B6A03F00203002B0AD0FB6903F0010348
:102B5000002B05D07B681B6C43F004027B681A6471
:102B60007B6A03F00803002B0FD03B6A03F02003BD
:102B7000002B04D1FB6903F00103002B05D07B6817
:102B80001B6C43F008027B681A647B681B6C002B8B
:102B900000F01E817B6A03F02003002B07D03B6A04
:102BA00003F02003002B02D0786800F0E8F97B687E
:102BB0001B685B6903F04003002B14BF0123002353
:102BC000DBB27B617B681B6C03F00803002B02D136
:102BD0007B69002B31D0786800F02AF97B681B688C
:102BE0005B6903F04003002B23D07B681B685A69A4
:102BF0007B681B6822F040025A617B689B6B002B4C
:102C000013D07B689B6B764A5A637B689B6B184634
:102C1000FEF7CEFC0346002B16D07B689B6B5B6BEC
:102C20007A68926B104698470EE0786800F0ECF8EE
:102C30000AE0786800F0E8F806E0786800F0E4F868
:102C40007B6800221A64C3E000BFC1E07B681B6B95
:102C5000012B40F0A1807B6A03F01003002B00F0F1
:102C60009B803B6A03F01003002B00F0958000234B
:102C7000FB607B681B681B68FB607B681B685B688C
:102C8000FB60FB687B681B685B6903F04003002BFB
:102C90004ED07B689B6B1B685B683B823B8A002B3A
:102CA00000F098807B689B8D3A8A9A4280F09280EF
:102CB0007B683A8ADA857B689B6B9B69202B2BD0DB
:102CC0007B681B68DA687B681B6822F48072DA60B4
:102CD0007B681B685A697B681B6822F001025A6195
:102CE0007B681B685A697B681B6822F040025A6146
:102CF0007B68202283F83E207B6800221A637B6871
:102D00001B68DA687B681B6822F01002DA607B6857
:102D10009B6B1846FEF711FC7B689A8D7B68DB8DF8
:102D20009BB2D31A9BB21946786800F076F851E04E
:102D30007B689A8D7B68DB8D9BB2D31A7B827B6824
:102D4000DB8D9BB2002B47D07B8A002B44D07B6865
:102D50001B68DA687B681B6822F49072DA607B6813
:102D60001B685A697B681B6822F001025A617B6804
:102D7000202283F83E207B6800221A637B681B6850
:102D8000DA687B681B6822F01002DA607B8A1946D9
:102D9000786800F042F81FE07B6A03F08003002BA4
:102DA00008D03B6A03F08003002B03D0786800F062
:102DB0007FF812E07B6A03F04003002B0DD03B6AE2
:102DC00003F04003002B08D0786800F0C0F804E05E
:102DD00000BF02E000BF00E000BF2837BD4680BD55
:102DE000892E000880B483B000AF786000BF0C3734
:102DF000BD4680BC704780B483B000AF786000BF30
:102E00000C37BD4680BC704780B483B000AF78609B
:102E100000BF0C37BD4680BC704780B483B000AFA4
:102E200078600B467B8000BF0C37BD4680BC704786
:102E300080B483B000AF78607B681B68DA687B6819
:102E40001B6822F49072DA607B681B685A697B68A1
:102E50001B6822F001025A617B681B6B012B07D1B2
:102E60007B681B68DA687B681B6822F01002DA60F6
:102E70007B68202283F83E207B6800221A6300BF13
:102E80000C37BD4680BC704780B584B000AF786019
:102E90007B685B6AFB60FB680022DA85FB680022C6
:102EA000DA84F868FFF7B0FF00BF1037BD4680BD79
:102EB00080B485B000AF78607B6893F83D30DBB2BA
:102EC000212B3ED17B689B68B3F5805F14D17B6872
:102ED0001B69002B10D17B681B6AFB60FB681B8899
:102EE0001A467B681B68C2F308025A607B681B6A3B
:102EF0009A1C7B681A6208E07B681B6A591C7A6816
:102F000011621A787B681B685A607B68DB8C9BB205
:102F1000013B9BB27A681946D184002B0FD17B68A4
:102F20001B68DA687B681B6822F08002DA607B68C5
:102F30001B68DA687B681B6842F04002DA60002395
:102F400000E0022318461437BD4680BC704780B5A8
:102F500082B000AF78607B681B68DA687B681B68AA
:102F600022F04002DA607B68202283F83D207868F6
:102F7000FFF738FF002318460837BD4680BD80B5EF
:102F800086B000AF78607B6893F83E30DBB2222BCE
:102F900040F099807B689B68B3F5805F17D17B68B0
:102FA0001B69002B13D100237B617B689B6A3B610B
:102FB0007B681B685B689BB2C3F308039AB23B69EA
:102FC0001A807B689B6A9A1C7B689A6226E07B6801
:102FD0009B6A7B6100233B617B689B68B3F5805FE4
:102FE00007D07B689B68002B0AD17B681B69002B8C
:102FF00006D17B681B685B68DAB27B691A7008E0EF
:103000007B681B685B68DBB203F07F03DAB27B6925
:103010001A707B689B6A5A1C7B689A627B68DB8D9E
:103020009BB2013B9BB27A681946D185002B48D1EF
:103030007B681B68DA687B681B6822F02002DA6014
:103040007B681B68DA687B681B6822F48072DA6030
:103050007B681B685A697B681B6822F001025A6111
:103060007B68202283F83E207B681B6B012B23D1D9
:103070007B6800221A637B681B68DA687B681B68C0
:1030800022F01002DA607B681B681B6803F01003F3
:10309000102B0AD10023FB607B681B681B68FB6058
:1030A0007B681B685B68FB60FB687B689B8D1946CF
:1030B0007868FFF7B2FE02E07868FFF79CFE002315
:1030C00002E0002300E0022318461837BD4680BD09
:1030D00080B584B000AF78607B681B681B6923F4FF
:1030E00040517B68DA687B681B680A431A617B6819
:1030F0009A687B681B691A437B685B691343BB60F2
:103100007B681B68DB6823F4B05323F00C037A68F8
:103110001268B9680B43D3607B681B685B6923F452
:1031200040717B689A697B681B680A435A617B68B7
:103130001B682C4A934203D1FFF746F8F86002E07F
:10314000FFF72EF8F860FA6813469B0013449A00C4
:103150001A447B685B689B00B2FBF3F3224AA2FB34
:1031600003235B091901FA6813469B0013449A0074
:103170001A447B685B689B00B2FBF3F21A4BA3FB1B
:1031800002035B09642000FB03F3D31A1B013233F3
:10319000154AA2FB03235B0903F0F0031944FA6804
:1031A00013469B0013449A001A447B685B689B009B
:1031B000B2FBF3F20C4BA3FB02035B09642000FBA0
:1031C00003F3D31A1B013233074AA2FB03235B0923
:1031D00003F00F027B681B680A449A6000BF103737
:1031E000BD4680BD003801401F85EB5170B50026FB
:1031F0000C4D0D4C641BA410A64209D100F022F81E
:1032000000260A4D0A4C641BA410A64205D170BDCD
:1032100055F8043B98470136EEE755F8043B9847CC
:103220000136F2E7A8320008A8320008A8320008E8
:10323000AC32000803460244934200D1704703F8C1
:10324000011BF9E7F8B500BFF8BC08BC9E46704703
:0C325000F8B500BFF8BC08BC9E467047F3
:10325C0043414E4E4F542044454C45544520544117
:10326C00534B00004552524F520000004E4F524DEE
:10327C00414C000002030405060708090A0B0C0D5B
:10328C000E0F1010000000000000000001020304EB
:0C329C00060708090000000001020304FE
:0432A80035010008E4
:0432AC001101000804
:1032B0000A0000000024F4001000000001000000DB
:0400000508001211CC
:00000001FF
